{
  "_format": "hh-sol-artifact-1",
  "contractName": "Elektra",
  "sourceName": "contracts/Elektra.sol",
  "abi": [
    {
      "anonymous": false,
      "inputs": [
        {
          "indexed": true,
          "internalType": "address",
          "name": "sender",
          "type": "address"
        },
        {
          "indexed": false,
          "internalType": "uint256",
          "name": "amount",
          "type": "uint256"
        },
        {
          "indexed": false,
          "internalType": "uint256",
          "name": "totalOfCollateralDeposited",
          "type": "uint256"
        }
      ],
      "name": "CollateralDeposit",
      "type": "event"
    },
    {
      "anonymous": false,
      "inputs": [
        {
          "indexed": true,
          "internalType": "address",
          "name": "sender",
          "type": "address"
        },
        {
          "indexed": false,
          "internalType": "uint256",
          "name": "amount",
          "type": "uint256"
        },
        {
          "indexed": false,
          "internalType": "uint256",
          "name": "totalDebt",
          "type": "uint256"
        }
      ],
      "name": "Debt",
      "type": "event"
    },
    {
      "anonymous": false,
      "inputs": [
        {
          "indexed": true,
          "internalType": "address",
          "name": "sender",
          "type": "address"
        },
        {
          "indexed": false,
          "internalType": "uint256",
          "name": "amount",
          "type": "uint256"
        },
        {
          "indexed": false,
          "internalType": "uint256",
          "name": "totalOfCollateralDeposited",
          "type": "uint256"
        }
      ],
      "name": "Withdrawal",
      "type": "event"
    },
    {
      "inputs": [
        {
          "internalType": "uint256",
          "name": "_amount",
          "type": "uint256"
        }
      ],
      "name": "depositCollateral",
      "outputs": [],
      "stateMutability": "nonpayable",
      "type": "function"
    },
    {
      "inputs": [
        {
          "internalType": "uint256",
          "name": "_amount",
          "type": "uint256"
        }
      ],
      "name": "repay",
      "outputs": [],
      "stateMutability": "nonpayable",
      "type": "function"
    },
    {
      "inputs": [
        {
          "internalType": "address",
          "name": "_sender",
          "type": "address"
        }
      ],
      "name": "seeCollateralValue",
      "outputs": [
        {
          "internalType": "uint256",
          "name": "",
          "type": "uint256"
        }
      ],
      "stateMutability": "view",
      "type": "function"
    },
    {
      "inputs": [
        {
          "internalType": "address",
          "name": "_sender",
          "type": "address"
        }
      ],
      "name": "seeTotalDebtGet",
      "outputs": [
        {
          "internalType": "uint256",
          "name": "",
          "type": "uint256"
        }
      ],
      "stateMutability": "view",
      "type": "function"
    },
    {
      "inputs": [
        {
          "internalType": "uint256",
          "name": "_amount",
          "type": "uint256"
        }
      ],
      "name": "takeLoan",
      "outputs": [],
      "stateMutability": "nonpayable",
      "type": "function"
    },
    {
      "inputs": [
        {
          "internalType": "uint256",
          "name": "_amount",
          "type": "uint256"
        }
      ],
      "name": "withdrawCollateral",
      "outputs": [],
      "stateMutability": "nonpayable",
      "type": "function"
    }
  ],
  "bytecode": "0x608060405234801561001057600080fd5b5061101f806100206000396000f3fe608060405234801561001057600080fd5b50600436106100625760003560e01c8063371fd8e6146100675780636112fe2e146100835780638c803fc21461009f5780638f332ab4146100bb5780639968f2cb146100eb578063bad4a01f1461011b575b600080fd5b610081600480360381019061007c9190610b54565b610137565b005b61009d60048036038101906100989190610b54565b610288565b005b6100b960048036038101906100b49190610b54565b61054f565b005b6100d560048036038101906100d09190610bdf565b6107bf565b6040516100e29190610c1b565b60405180910390f35b61010560048036038101906101009190610bdf565b610808565b6040516101129190610c1b565b60405180910390f35b61013560048036038101906101309190610b54565b610850565b005b6000811161014457600080fd5b73b9fdf942fd49a3876b4c5aad3b65b48c8c7bec2c73ffffffffffffffffffffffffffffffffffffffff166323b872dd3330846040518463ffffffff1660e01b815260040161019593929190610c45565b6020604051808303816000875af11580156101b4573d6000803e3d6000fd5b505050506040513d601f19601f820116820180604052508101906101d89190610cb4565b507356ab717d882f7a8d4a3c2b191707322c5cc70db873ffffffffffffffffffffffffffffffffffffffff1663573ade8173b9fdf942fd49a3876b4c5aad3b65b48c8c7bec2c836002306040518563ffffffff1660e01b81526004016102419493929190610d26565b6020604051808303816000875af1158015610260573d6000803e3d6000fd5b505050506040513d601f19601f820116820180604052508101906102849190610d80565b5050565b60008114806102d45750806000803373ffffffffffffffffffffffffffffffffffffffff1673ffffffffffffffffffffffffffffffffffffffff16815260200190815260200160002054105b156102de57600080fd5b6000600160003373ffffffffffffffffffffffffffffffffffffffff1673ffffffffffffffffffffffffffffffffffffffff16815260200190815260200160002054111561032b57600080fd5b7356ab717d882f7a8d4a3c2b191707322c5cc70db873ffffffffffffffffffffffffffffffffffffffff166369328dec73c8c0cf9436f4862a8f60ce680ca5a9f0f99b5ded83306040518463ffffffff1660e01b815260040161039093929190610dad565b6020604051808303816000875af11580156103af573d6000803e3d6000fd5b505050506040513d601f19601f820116820180604052508101906103d39190610d80565b50806000803373ffffffffffffffffffffffffffffffffffffffff1673ffffffffffffffffffffffffffffffffffffffff16815260200190815260200160002060008282546104229190610e13565b9250508190555073c8c0cf9436f4862a8f60ce680ca5a9f0f99b5ded73ffffffffffffffffffffffffffffffffffffffff166323b872dd3033846040518463ffffffff1660e01b815260040161047a93929190610c45565b6020604051808303816000875af1158015610499573d6000803e3d6000fd5b505050506040513d601f19601f820116820180604052508101906104bd9190610cb4565b503373ffffffffffffffffffffffffffffffffffffffff167fdf273cb619d95419a9cd0ec88123a0538c85064229baa6363788f743fff90deb826000803373ffffffffffffffffffffffffffffffffffffffff1673ffffffffffffffffffffffffffffffffffffffff16815260200190815260200160002054604051610544929190610e47565b60405180910390a250565b600081148061059b5750806000803373ffffffffffffffffffffffffffffffffffffffff1673ffffffffffffffffffffffffffffffffffffffff16815260200190815260200160002054105b156105a557600080fd5b7356ab717d882f7a8d4a3c2b191707322c5cc70db873ffffffffffffffffffffffffffffffffffffffff1663a415bcad73b9fdf942fd49a3876b4c5aad3b65b48c8c7bec2c8360016000306040518663ffffffff1660e01b8152600401610610959493929190610ef4565b600060405180830381600087803b15801561062a57600080fd5b505af115801561063e573d6000803e3d6000fd5b5050505080600160003373ffffffffffffffffffffffffffffffffffffffff1673ffffffffffffffffffffffffffffffffffffffff16815260200190815260200160002060008282546106919190610f47565b9250508190555073b9fdf942fd49a3876b4c5aad3b65b48c8c7bec2c73ffffffffffffffffffffffffffffffffffffffff166323b872dd3033846040518463ffffffff1660e01b81526004016106e993929190610c45565b6020604051808303816000875af1158015610708573d6000803e3d6000fd5b505050506040513d601f19601f8201168201806040525081019061072c9190610cb4565b503373ffffffffffffffffffffffffffffffffffffffff167f346b35a36b2784c2b086a172847e5dff482198ad32d61b238db488dfc6a3f10a82600160003373ffffffffffffffffffffffffffffffffffffffff1673ffffffffffffffffffffffffffffffffffffffff168152602001908152602001600020546040516107b4929190610e47565b60405180910390a250565b6000600160008373ffffffffffffffffffffffffffffffffffffffff1673ffffffffffffffffffffffffffffffffffffffff168152602001908152602001600020549050919050565b60008060008373ffffffffffffffffffffffffffffffffffffffff1673ffffffffffffffffffffffffffffffffffffffff168152602001908152602001600020549050919050565b6000810361085d57600080fd5b73c8c0cf9436f4862a8f60ce680ca5a9f0f99b5ded73ffffffffffffffffffffffffffffffffffffffff166323b872dd3330846040518463ffffffff1660e01b81526004016108ae93929190610c45565b6020604051808303816000875af11580156108cd573d6000803e3d6000fd5b505050506040513d601f19601f820116820180604052508101906108f19190610cb4565b5073c8c0cf9436f4862a8f60ce680ca5a9f0f99b5ded73ffffffffffffffffffffffffffffffffffffffff1663095ea7b37356ab717d882f7a8d4a3c2b191707322c5cc70db8836040518363ffffffff1660e01b8152600401610955929190610f7b565b6020604051808303816000875af1158015610974573d6000803e3d6000fd5b505050506040513d601f19601f820116820180604052508101906109989190610cb4565b507356ab717d882f7a8d4a3c2b191707322c5cc70db873ffffffffffffffffffffffffffffffffffffffff1663617ba03773c8c0cf9436f4862a8f60ce680ca5a9f0f99b5ded833060006040518563ffffffff1660e01b8152600401610a019493929190610fa4565b600060405180830381600087803b158015610a1b57600080fd5b505af1158015610a2f573d6000803e3d6000fd5b50505050806000803373ffffffffffffffffffffffffffffffffffffffff1673ffffffffffffffffffffffffffffffffffffffff1681526020019081526020016000206000828254610a819190610f47565b925050819055503373ffffffffffffffffffffffffffffffffffffffff167f56980cb98b568e9a287b212724142cec16ea92c72b529e2b0f1d89f419182869826000803373ffffffffffffffffffffffffffffffffffffffff1673ffffffffffffffffffffffffffffffffffffffff16815260200190815260200160002054604051610b0e929190610e47565b60405180910390a250565b600080fd5b6000819050919050565b610b3181610b1e565b8114610b3c57600080fd5b50565b600081359050610b4e81610b28565b92915050565b600060208284031215610b6a57610b69610b19565b5b6000610b7884828501610b3f565b91505092915050565b600073ffffffffffffffffffffffffffffffffffffffff82169050919050565b6000610bac82610b81565b9050919050565b610bbc81610ba1565b8114610bc757600080fd5b50565b600081359050610bd981610bb3565b92915050565b600060208284031215610bf557610bf4610b19565b5b6000610c0384828501610bca565b91505092915050565b610c1581610b1e565b82525050565b6000602082019050610c306000830184610c0c565b92915050565b610c3f81610ba1565b82525050565b6000606082019050610c5a6000830186610c36565b610c676020830185610c36565b610c746040830184610c0c565b949350505050565b60008115159050919050565b610c9181610c7c565b8114610c9c57600080fd5b50565b600081519050610cae81610c88565b92915050565b600060208284031215610cca57610cc9610b19565b5b6000610cd884828501610c9f565b91505092915050565b6000819050919050565b6000819050919050565b6000610d10610d0b610d0684610ce1565b610ceb565b610b1e565b9050919050565b610d2081610cf5565b82525050565b6000608082019050610d3b6000830187610c36565b610d486020830186610c0c565b610d556040830185610d17565b610d626060830184610c36565b95945050505050565b600081519050610d7a81610b28565b92915050565b600060208284031215610d9657610d95610b19565b5b6000610da484828501610d6b565b91505092915050565b6000606082019050610dc26000830186610c36565b610dcf6020830185610c0c565b610ddc6040830184610c36565b949350505050565b7f4e487b7100000000000000000000000000000000000000000000000000000000600052601160045260246000fd5b6000610e1e82610b1e565b9150610e2983610b1e565b9250828203905081811115610e4157610e40610de4565b5b92915050565b6000604082019050610e5c6000830185610c0c565b610e696020830184610c0c565b9392505050565b6000819050919050565b6000610e95610e90610e8b84610e70565b610ceb565b610b1e565b9050919050565b610ea581610e7a565b82525050565b6000819050919050565b600061ffff82169050919050565b6000610ede610ed9610ed484610eab565b610ceb565b610eb5565b9050919050565b610eee81610ec3565b82525050565b600060a082019050610f096000830188610c36565b610f166020830187610c0c565b610f236040830186610e9c565b610f306060830185610ee5565b610f3d6080830184610c36565b9695505050505050565b6000610f5282610b1e565b9150610f5d83610b1e565b9250828201905080821115610f7557610f74610de4565b5b92915050565b6000604082019050610f906000830185610c36565b610f9d6020830184610c0c565b9392505050565b6000608082019050610fb96000830187610c36565b610fc66020830186610c0c565b610fd36040830185610c36565b610fe06060830184610ee5565b9594505050505056fea26469706673582212204179628b07a37fffb4428e141c3074541f245063e53ad3b50eda2f04a26a62be64736f6c63430008180033",
  "linkReferences": {},
  "deployedLinkReferences": {}
}